:020000020000FC
:040000000C94350027
:040024000C94310106
:100040000C94EF0018B81BB815B80FE3D1E0C0E06E
:10005000C00F188201500030D1F7332444245524B6
:100060006624772488249924AA24112408E00EBF4A
:100070000FEF0DBF789441E00FE007B90FE304B92B
:100080000CEF0AB970E000E0302E00E0402E00E0F6
:10009000502E00E0602E00E0702E00E0802E00E088
:1000A000902E00E0A02E00E0D1E0C0E0C0E0C00F44
:1000B00018820F5F0F3F11F00C9456006DE91091FC
:1000C0007C00106610937C0010917C001F771093C9
:1000D0007C0010917A00176810937A00EED101E04D
:1000E00010916E00012B00936E00F0D101E0109191
:1000F0007000012B00937000A0E0AF5FAF3FE1F311
:1001000090917C00946090937C0090917C00947F0F
:1001100090937C00689490917A0096F990937A007D
:1001200090917A0094FF0C949000C0907900909187
:100130007C00956090937C0090917C00957F9093DB
:100140007C00689490917A0096F990937A0090914F
:100150007A0094FF0C94A700D090790054D04130DD
:1001600081F0423099F04430B1F04830C9F040316C
:10017000E1F0403211F1403431F1403851F10C944A
:100180007D005AD091E098B90C94BF0055D092E010
:1001900098B90C94BF0050D094E098B90C94BF006B
:1001A0004BD098E098B90C94BF0090E098B944D037
:1001B00084E0892B8BB90C94BF003ED088E0892B5A
:1001C0008BB90C94BF0038D080E1892B8BB90C948B
:1001D000BF0032D080E2892B8BB90C94BF00F89419
:1001E00090E098B99BB995B947FB440F40F95F3F40
:1001F00011F078941895F9D01ED13ED1B0D055D0D9
:100200005CD055271895413009F4B32C423009F4DD
:10021000B42C443009F4B52C483009F4B62C4031E4
:1002200009F4B72C403209F4B82C403409F4B92C45
:10023000403809F4BA2C08959927B5FA90F9B4FA20
:1002400091F9B3FA92F9B2FA93F9B1FA94F9B0FAD2
:1002500095F995B99927B7FA96F9B6FA97F99BB92E
:1002600008955F5F07E0C01650F008EFC01660F415
:1002700008EFD01670F407E0D01688F01895E894CF
:1002800067F966F90C943E01689467F966F90C9475
:100290003E01689467F9E89466F90C943E01E8948D
:1002A00067F9689466F90C943E010FE306233DD08C
:1002B000006CD1E0C0E008830895D1E0C0E418816B
:1002C00007E00123003009F420E8013009F420E4BC
:1002D000023009F420E2033009F420E1043009F48B
:1002E00028E0053009F424E0063009F422E0073064
:1002F00009F421E008E30123003009F4322A083030
:1003000009F4422A003109F4522A083109F4622A18
:10031000003209F4722A083209F4822A003309F4FF
:10032000922A083309F4A22A0895D1E0C0E4188182
:10033000101771F0006CD1E0372FC0E0C30F3150BF
:100340002881021751F0311511F00C949D01089588
:100350007F5F1A2F1F73188308950C942200D1E039
:10036000C0E0C70F0DD0072F21E0C0E0003039F00A
:100370000150C00F1881C20F18830C94B501089565
:1003800018811770103009F43FE7113009F43FEB82
:10039000123009F43FED133009F43FEE143009F444
:1003A00037EF153009F43BEF163009F43DEF173005
:1003B00009F43EEF18811873103009F43322183015
:1003C00009F44322103109F45322183109F463224D
:1003D000103209F47322183209F48322103309F41D
:1003E0009322183309F4A322089527E0262300EC72
:1003F0000623003019F4685F6F730895003C21F400
:10040000685010EC612B0895003431F4273059F016
:100410006F5F60646F7708950038203041F061505D
:1004200060686F7B0895675060646F770895695FB7
:1004300060686F7B089500E017E01623103011F418
:1004400000E80895113011F400E40895123011F419
:1004500000E20895133011F400E10895143011F40E
:1004600008E00895153011F404E00895163011F4F1
:1004700002E0089501E0089510E028E326232030EB
:1004800011F4302A0895283011F4402A08952031BB
:1004900011F4502A0895283111F4602A0895203269
:1004A00011F4702A0895283211F4802A0895203317
:1004B00011F4902A0895A02A08950AEF15B5012392
:1004C00005BD02E015B5012B05BD089501E01091B1
:1004D000B100012B0093B1000DEF10912500012315
:1004E0000093B10004E01091B100012B0093B10022
:0204F00008956D
:00000001FF
